{
    "_format": "hh-sol-artifact-1",
    "contractName": "AMBAdapter",
    "sourceName": "contracts/adapters/AMB/AMBAdapter.sol",
    "abi": [
        {
            "inputs": [
                {
                    "internalType": "contract IAMB",
                    "name": "_amb",
                    "type": "address"
                },
                {
                    "internalType": "address",
                    "name": "_reporter",
                    "type": "address"
                },
                {
                    "internalType": "bytes32",
                    "name": "_chainId",
                    "type": "bytes32"
                }
            ],
            "stateMutability": "nonpayable",
            "type": "constructor"
        },
        {
            "inputs": [
                {
                    "internalType": "address",
                    "name": "emitter",
                    "type": "address"
                }
            ],
            "name": "ArrayLengthMissmatch",
            "type": "error"
        },
        {
            "inputs": [
                {
                    "internalType": "uint256",
                    "name": "blockNumber",
                    "type": "uint256"
                },
                {
                    "internalType": "bytes32",
                    "name": "reportedBlockHash",
                    "type": "bytes32"
                },
                {
                    "internalType": "bytes32",
                    "name": "storedBlockHash",
                    "type": "bytes32"
                }
            ],
            "name": "ConflictingBlockHeader",
            "type": "error"
        },
        {
            "inputs": [
                {
                    "internalType": "uint256",
                    "name": "length",
                    "type": "uint256"
                }
            ],
            "name": "InvalidBlockHeaderLength",
            "type": "error"
        },
        {
            "inputs": [],
            "name": "InvalidBlockHeaderRLP",
            "type": "error"
        },
        {
            "inputs": [
                {
                    "internalType": "address",
                    "name": "emitter",
                    "type": "address"
                },
                {
                    "internalType": "address",
                    "name": "sender",
                    "type": "address"
                }
            ],
            "name": "UnauthorizedAMB",
            "type": "error"
        },
        {
            "inputs": [
                {
                    "internalType": "address",
                    "name": "emitter",
                    "type": "address"
                },
                {
                    "internalType": "bytes32",
                    "name": "chainId",
                    "type": "bytes32"
                }
            ],
            "name": "UnauthorizedChainId",
            "type": "error"
        },
        {
            "inputs": [
                {
                    "internalType": "address",
                    "name": "emitter",
                    "type": "address"
                },
                {
                    "internalType": "address",
                    "name": "reporter",
                    "type": "address"
                }
            ],
            "name": "UnauthorizedHashReporter",
            "type": "error"
        },
        {
            "anonymous": false,
            "inputs": [
                {
                    "indexed": true,
                    "internalType": "uint256",
                    "name": "id",
                    "type": "uint256"
                },
                {
                    "indexed": true,
                    "internalType": "bytes32",
                    "name": "hashes",
                    "type": "bytes32"
                }
            ],
            "name": "HashStored",
            "type": "event"
        },
        {
            "inputs": [],
            "name": "amb",
            "outputs": [
                {
                    "internalType": "contract IAMB",
                    "name": "",
                    "type": "address"
                }
            ],
            "stateMutability": "view",
            "type": "function"
        },
        {
            "inputs": [],
            "name": "chainId",
            "outputs": [
                {
                    "internalType": "bytes32",
                    "name": "",
                    "type": "bytes32"
                }
            ],
            "stateMutability": "view",
            "type": "function"
        },
        {
            "inputs": [
                {
                    "internalType": "uint256",
                    "name": "domain",
                    "type": "uint256"
                },
                {
                    "internalType": "uint256",
                    "name": "id",
                    "type": "uint256"
                }
            ],
            "name": "getHashFromOracle",
            "outputs": [
                {
                    "internalType": "bytes32",
                    "name": "hash",
                    "type": "bytes32"
                }
            ],
            "stateMutability": "view",
            "type": "function"
        },
        {
            "inputs": [
                {
                    "internalType": "uint256",
                    "name": "",
                    "type": "uint256"
                },
                {
                    "internalType": "uint256",
                    "name": "",
                    "type": "uint256"
                }
            ],
            "name": "hashes",
            "outputs": [
                {
                    "internalType": "bytes32",
                    "name": "",
                    "type": "bytes32"
                }
            ],
            "stateMutability": "view",
            "type": "function"
        },
        {
            "inputs": [
                {
                    "internalType": "uint256",
                    "name": "chainId",
                    "type": "uint256"
                },
                {
                    "internalType": "bytes[]",
                    "name": "blockHeaders",
                    "type": "bytes[]"
                }
            ],
            "name": "proveAncestralBlockHashes",
            "outputs": [],
            "stateMutability": "nonpayable",
            "type": "function"
        },
        {
            "inputs": [],
            "name": "reporter",
            "outputs": [
                {
                    "internalType": "address",
                    "name": "",
                    "type": "address"
                }
            ],
            "stateMutability": "view",
            "type": "function"
        },
        {
            "inputs": [
                {
                    "internalType": "uint256[]",
                    "name": "ids",
                    "type": "uint256[]"
                },
                {
                    "internalType": "bytes32[]",
                    "name": "_hashes",
                    "type": "bytes32[]"
                }
            ],
            "name": "storeHashes",
            "outputs": [],
            "stateMutability": "nonpayable",
            "type": "function"
        }
    ],
    "bytecode": "0x608060405234801561001057600080fd5b50604051610d7e380380610d7e83398101604081905261002f9161007f565b600180546001600160a01b039485166001600160a01b03199182161790915560028054939094169216919091179091556003556100c2565b6001600160a01b038116811461007c57600080fd5b50565b60008060006060848603121561009457600080fd5b835161009f81610067565b60208501519093506100b081610067565b80925050604084015190509250925092565b610cad806100d16000396000f3fe608060405234801561001057600080fd5b506004361061007d5760003560e01c80638599a9691161005b5780638599a969146100da5780639a8a059214610111578063d13372ca1461011a578063e81900a61461014257600080fd5b8063010ec441146100825780631062b39a146100b257806369f55903146100c5575b600080fd5b600254610095906001600160a01b031681565b6040516001600160a01b0390911681526020015b60405180910390f35b600154610095906001600160a01b031681565b6100d86100d33660046109e7565b610155565b005b6101036100e8366004610aa0565b60009182526020828152604080842092845291905290205490565b6040519081526020016100a9565b61010360035481565b610103610128366004610aa0565b600060208181529281526040808220909352908152205481565b6100d8610150366004610ac2565b61036c565b6001546001600160a01b0316331461018d57604051634848191960e01b81523060048201523360248201526044015b60405180910390fd5b600354600160009054906101000a90046001600160a01b03166001600160a01b0316639e307dff6040518163ffffffff1660e01b8152600401602060405180830381865afa1580156101e3573d6000803e3d6000fd5b505050506040513d601f19601f820116820180604052508101906102079190610bd4565b146102325760035460405163a015394d60e01b81523060048201526024810191909152604401610184565b6002546001546040805163d67bdd2560e01b815290516001600160a01b03938416939092169163d67bdd25916004808201926020929091908290030181865afa158015610283573d6000803e3d6000fd5b505050506040513d601f19601f820116820180604052508101906102a79190610bed565b6001600160a01b0316146102e357600254604051630169b0ab60e61b81523060048201526001600160a01b039091166024820152604401610184565b80518251146103075760405163e58349fb60e01b8152306004820152602401610184565b60005b82518110156103675761035560035460001c84838151811061032e5761032e610c16565b602002602001015184848151811061034857610348610c16565b6020026020010151610511565b8061035f81610c42565b91505061030a565b505050565b60005b81518110156103675760006103c483838151811061038f5761038f610c16565b602002602001015160408051808201825260008082526020918201528151808301909252825182529182019181019190915290565b90506103cf8161057b565b6103ec5760405163e4508b9f60e01b815260040160405180910390fd5b60006103f7826105b6565b9050600f8151108061040a575060118151115b1561042d5780516040516327f5b84760e21b815260040161018491815260200190565b60006104528260008151811061044557610445610c16565b60200260200101516106cc565b60001b9050600061046f8360088151811061044557610445610c16565b9050600086868151811061048557610485610c16565b60209081029190910181015180519082012060008a8152808352604080822086835290935291909120549091508082146104e35760405163c442fd2b60e01b8152600481018490526024810183905260448101829052606401610184565b6104f8896104f2600186610c5b565b86610511565b505050505050808061050990610c42565b91505061036f565b6000838152602081815260408083208584529091529020548181146105755760008481526020818152604080832086845290915280822084905551839185917f7c57815e36323391c63e53a2fe2969599eb6dbcf52484a3bd8909aef4a6704d79190a35b50505050565b8051600090810361058e57506000919050565b6020820151805160001a9060c08210156105ac575060009392505050565b5060019392505050565b60606105c18261057b565b6105ca57600080fd5b60006105d58361071a565b905060008167ffffffffffffffff8111156105f2576105f2610911565b60405190808252806020026020018201604052801561063757816020015b60408051808201909152600080825260208201528152602001906001900390816106105790505b5090506000610649856020015161079f565b85602001516106589190610c74565b90506000805b848110156106c15761066f83610821565b915060405180604001604052808381526020018481525084828151811061069857610698610c16565b60209081029190910101526106ad8284610c74565b9250806106b981610c42565b91505061065e565b509195945050505050565b8051600090158015906106e157508151602110155b6106ea57600080fd5b6000806106f6846108ca565b8151919350915060208210156107125760208290036101000a90045b949350505050565b8051600090810361072d57506000919050565b60008061073d846020015161079f565b846020015161074c9190610c74565b90506000846000015185602001516107649190610c74565b90505b808210156107965761077882610821565b6107829083610c74565b91508261078e81610c42565b935050610767565b50909392505050565b8051600090811a60808110156107b85750600092915050565b60b88110806107d3575060c081108015906107d3575060f881105b156107e15750600192915050565b60c0811015610815576107f6600160b8610c87565b6108039060ff1682610c5b565b61080e906001610c74565b9392505050565b6107f6600160f8610c87565b80516000908190811a608081101561083c57600191506108c3565b60b881101561086257610850608082610c5b565b61085b906001610c74565b91506108c3565b60c081101561088f5760b78103600185019450806020036101000a855104600182018101935050506108c3565b60f88110156108a35761085060c082610c5b565b60f78103600185019450806020036101000a855104600182018101935050505b5092915050565b60008060006108dc846020015161079f565b905060008185602001516108f09190610c74565b905060008286600001516109049190610c5b565b9196919550909350505050565b634e487b7160e01b600052604160045260246000fd5b604051601f8201601f1916810167ffffffffffffffff8111828210171561095057610950610911565b604052919050565b600067ffffffffffffffff82111561097257610972610911565b5060051b60200190565b600082601f83011261098d57600080fd5b813560206109a261099d83610958565b610927565b82815260059290921b840181019181810190868411156109c157600080fd5b8286015b848110156109dc57803583529183019183016109c5565b509695505050505050565b600080604083850312156109fa57600080fd5b823567ffffffffffffffff80821115610a1257600080fd5b818501915085601f830112610a2657600080fd5b81356020610a3661099d83610958565b82815260059290921b84018101918181019089841115610a5557600080fd5b948201945b83861015610a7357853582529482019490820190610a5a565b96505086013592505080821115610a8957600080fd5b50610a968582860161097c565b9150509250929050565b60008060408385031215610ab357600080fd5b50508035926020909101359150565b6000806040808486031215610ad657600080fd5b8335925060208085013567ffffffffffffffff80821115610af657600080fd5b8187019150601f8881840112610b0b57600080fd5b8235610b1961099d82610958565b81815260059190911b8401850190858101908b831115610b3857600080fd5b8686015b83811015610bc157803586811115610b545760008081fd5b8701603f81018e13610b665760008081fd5b8881013587811115610b7a57610b7a610911565b610b8b818801601f19168b01610927565b8181528f8c838501011115610ba05760008081fd5b818c84018c83013760009181018b0191909152845250918701918701610b3c565b5080985050505050505050509250929050565b600060208284031215610be657600080fd5b5051919050565b600060208284031215610bff57600080fd5b81516001600160a01b038116811461080e57600080fd5b634e487b7160e01b600052603260045260246000fd5b634e487b7160e01b600052601160045260246000fd5b600060018201610c5457610c54610c2c565b5060010190565b81810381811115610c6e57610c6e610c2c565b92915050565b80820180821115610c6e57610c6e610c2c565b60ff8281168282160390811115610c6e57610c6e610c2c56fea164736f6c6343000811000a",
    "linkReferences": {},
    "deployedLinkReferences": {}
}