{
    "_format": "hh-sol-artifact-1",
    "contractName": "AMBBridgeHelper",
    "sourceName": "contracts/adapters/AMB/AMBBridgeHelper.sol",
    "abi": [
        {
            "inputs": [
                {
                    "internalType": "address",
                    "name": "_homeBridge",
                    "type": "address"
                }
            ],
            "stateMutability": "nonpayable",
            "type": "constructor"
        },
        {
            "inputs": [],
            "name": "AMBcontract",
            "outputs": [
                {
                    "internalType": "contract IHomeBridge",
                    "name": "",
                    "type": "address"
                }
            ],
            "stateMutability": "view",
            "type": "function"
        },
        {
            "inputs": [],
            "name": "clean",
            "outputs": [],
            "stateMutability": "nonpayable",
            "type": "function"
        },
        {
            "inputs": [
                {
                    "internalType": "bytes",
                    "name": "_message",
                    "type": "bytes"
                }
            ],
            "name": "getSignatures",
            "outputs": [
                {
                    "internalType": "bytes",
                    "name": "",
                    "type": "bytes"
                }
            ],
            "stateMutability": "view",
            "type": "function"
        }
    ],
    "bytecode": "0x608060405234801561001057600080fd5b50600436106100415760003560e01c80636b45b4e314610046578063fc4333cd1461012b578063ff381d9414610135575b600080fd5b6100b66004803603602081101561005c57600080fd5b81019060208101813564010000000081111561007757600080fd5b82018360208201111561008957600080fd5b803590602001918460018302840111640100000000831117156100ab57600080fd5b509092509050610159565b6040805160208082528351818301528351919283929083019185019080838360005b838110156100f05781810151838201526020016100d8565b50505050905090810190601f16801561011d5780820380516001836020036101000a031916815260200191505b509250505060405180910390f35b6101336104d5565b005b61013d610531565b604080516001600160a01b039092168252519081900360200190f35b606060008383604051602001808383808284376040805191909301818103601f190182528084528151602092830120600154630cbf060160e01b8352600483018290529451909850600097506001600160a01b039094169550630cbf0601945060248082019492935090829003018186803b1580156101d757600080fd5b505afa1580156101eb573d6000803e3d6000fd5b505050506040513d602081101561020157600080fd5b5051600154604080516001620b985d60e21b031981526004810184905290519293506001600160a01b039091169163ffd19e8c91602480820192602092909190829003018186803b15801561025557600080fd5b505afa158015610269573d6000803e3d6000fd5b505050506040513d602081101561027f57600080fd5b50516102d2576040805162461bcd60e51b815260206004820152601d60248201527f6d657373616765206861736e2774206265656e20636f6e6669726d6564000000604482015290519081900360640190fd5b6001600960ac1b031661010081106102e957600080fd5b60008160410260010167ffffffffffffffff8111801561030857600080fd5b506040519080825280601f01601f191660200182016040528015610333576020820181803683370190505b50905081602082015360005b828110156104cb5760015460408051630c096ccb60e11b8152600481018790526024810184905290516000926001600160a01b031691631812d9969160448083019286929190829003018186803b15801561039957600080fd5b505afa1580156103ad573d6000803e3d6000fd5b505050506040513d6000823e601f3d908101601f1916820160405260208110156103d657600080fd5b81019080805160405193929190846401000000008211156103f657600080fd5b90830190602082018581111561040b57600080fd5b825164010000000081118282018810171561042557600080fd5b82525081516020918201929091019080838360005b8381101561045257818101518382015260200161043a565b50505050905090810190601f16801561047f5780820380516001836020036101000a031916815260200191505b506040525050509050600080600061049684610540565b92509250925080856021880101535084860160208502908101602190810193909352828702860101909101525060010161033f565b5095945050505050565b6000546001600160a01b03163314610523576040805162461bcd60e51b815260206004820152600c60248201526b3737ba1030b71037bbb732b960a11b604482015290519081900360640190fd5b6000546001600160a01b0316ff5b6001546001600160a01b031681565b6000806000835160411461055357600080fd5b50505060208101516040820151604190920151909256fea264697066735822122009ccabb2367cc1dbcfd0dc17e39d965357d439fedc1cc13c700723a7d7df677964736f6c63430007060033",
    "linkReferences": {},
    "deployedLinkReferences": {}
}