{
    "_format": "hh-sol-artifact-1",
    "contractName": "AMBMessageRelay",
    "sourceName": "contracts/adapters/AMB/AMBMessageRelayer.sol",
    "abi": [
        {
            "inputs": [
                {
                    "internalType": "contract IAMB",
                    "name": "_amb",
                    "type": "address"
                },
                {
                    "internalType": "contract Yaho",
                    "name": "_yaho",
                    "type": "address"
                }
            ],
            "stateMutability": "nonpayable",
            "type": "constructor"
        },
        {
            "anonymous": false,
            "inputs": [
                {
                    "indexed": true,
                    "internalType": "address",
                    "name": "emitter",
                    "type": "address"
                },
                {
                    "indexed": true,
                    "internalType": "uint256",
                    "name": "messageId",
                    "type": "uint256"
                }
            ],
            "name": "MessageRelayed",
            "type": "event"
        },
        {
            "inputs": [],
            "name": "amb",
            "outputs": [
                {
                    "internalType": "contract IAMB",
                    "name": "",
                    "type": "address"
                }
            ],
            "stateMutability": "view",
            "type": "function"
        },
        {
            "inputs": [
                {
                    "internalType": "uint256[]",
                    "name": "messageIds",
                    "type": "uint256[]"
                },
                {
                    "internalType": "address",
                    "name": "ambAdapter",
                    "type": "address"
                }
            ],
            "name": "relayMessages",
            "outputs": [
                {
                    "internalType": "bytes32",
                    "name": "receipt",
                    "type": "bytes32"
                }
            ],
            "stateMutability": "payable",
            "type": "function"
        },
        {
            "inputs": [],
            "name": "yaho",
            "outputs": [
                {
                    "internalType": "contract Yaho",
                    "name": "",
                    "type": "address"
                }
            ],
            "stateMutability": "view",
            "type": "function"
        }
    ],
    "bytecode": "0x60c060405234801561001057600080fd5b5060405161066438038061066483398101604081905261002f9161005e565b6001600160a01b039182166080521660a052610098565b6001600160a01b038116811461005b57600080fd5b50565b6000806040838503121561007157600080fd5b825161007c81610046565b602084015190925061008d81610046565b809150509250929050565b60805160a05161059b6100c96000396000818160bd0152610154015260008181604b01526102cf015261059b6000f3fe6080604052600436106100345760003560e01c80631062b39a146100395780638781247a1461008a578063ee4937ba146100ab575b600080fd5b34801561004557600080fd5b5061006d7f000000000000000000000000000000000000000000000000000000000000000081565b6040516001600160a01b0390911681526020015b60405180910390f35b61009d610098366004610387565b6100df565b604051908152602001610081565b3480156100b757600080fd5b5061006d7f000000000000000000000000000000000000000000000000000000000000000081565b600080835167ffffffffffffffff8111156100fc576100fc610355565b604051908082528060200260200182016040528015610125578160200160208202803683370190505b50905060005b845181101561026257600085828151811061014857610148610457565b602002602001015190507f00000000000000000000000000000000000000000000000000000000000000006001600160a01b031663501895ae826040518263ffffffff1660e01b81526004016101a091815260200190565b602060405180830381865afa1580156101bd573d6000803e3d6000fd5b505050506040513d601f19601f820116820180604052508101906101e1919061046d565b8383815181106101f3576101f3610457565b60200260200101818152505085828151811061021157610211610457565b6020026020010151306001600160a01b03167f1ec56558159131145cca16f5f6dfa0cb00baed662a177d318d8bcb00b751820d60405160405180910390a3508061025a81610486565b91505061012b565b50600084826040516024016102789291906104ad565b60408051601f198184030181529181526020820180517bffffffffffffffffffffffffffffffffffffffffffffffffffffffff166369f5590360e01b1790525163dc8601b360e01b81529091506001600160a01b037f0000000000000000000000000000000000000000000000000000000000000000169063dc8601b3906103099087908590600090600401610528565b6020604051808303816000875af1158015610328573d6000803e3d6000fd5b505050506040513d601f19601f8201168201806040525081019061034c919061046d565b95945050505050565b634e487b7160e01b600052604160045260246000fd5b80356001600160a01b038116811461038257600080fd5b919050565b6000806040838503121561039a57600080fd5b823567ffffffffffffffff808211156103b257600080fd5b818501915085601f8301126103c657600080fd5b81356020828211156103da576103da610355565b8160051b604051601f19603f830116810181811086821117156103ff576103ff610355565b60405292835281830193508481018201928984111561041d57600080fd5b948201945b8386101561043b57853585529482019493820193610422565b965061044a905087820161036b565b9450505050509250929050565b634e487b7160e01b600052603260045260246000fd5b60006020828403121561047f57600080fd5b5051919050565b6000600182016104a657634e487b7160e01b600052601160045260246000fd5b5060010190565b604080825283519082018190526000906020906060840190828701845b828110156104e6578151845292840192908401906001016104ca565b5050508381038285015284518082528583019183019060005b8181101561051b578351835292840192918401916001016104ff565b5090979650505050505050565b6001600160a01b038416815260006020606081840152845180606085015260005b8181101561056557868101830151858201608001528201610549565b506000608082860101526080601f19601f8301168501019250505082604083015294935050505056fea164736f6c6343000811000a",
    "linkReferences": {},
    "deployedLinkReferences": {}
}